{
  "contractName": "UserDataStorage",
  "abi": [
    {
      "anonymous": false,
      "inputs": [
        {
          "indexed": true,
          "internalType": "address",
          "name": "userAddress",
          "type": "address"
        },
        {
          "indexed": false,
          "internalType": "string",
          "name": "name",
          "type": "string"
        },
        {
          "indexed": false,
          "internalType": "string",
          "name": "email",
          "type": "string"
        }
      ],
      "name": "UserAdded",
      "type": "event"
    },
    {
      "inputs": [
        {
          "internalType": "address",
          "name": "",
          "type": "address"
        }
      ],
      "name": "users",
      "outputs": [
        {
          "internalType": "string",
          "name": "name",
          "type": "string"
        },
        {
          "internalType": "string",
          "name": "email",
          "type": "string"
        }
      ],
      "stateMutability": "view",
      "type": "function",
      "constant": true
    },
    {
      "inputs": [
        {
          "internalType": "string",
          "name": "_name",
          "type": "string"
        },
        {
          "internalType": "string",
          "name": "_email",
          "type": "string"
        }
      ],
      "name": "addUser",
      "outputs": [],
      "stateMutability": "nonpayable",
      "type": "function"
    },
    {
      "inputs": [
        {
          "internalType": "address",
          "name": "_userAddress",
          "type": "address"
        }
      ],
      "name": "getUserData",
      "outputs": [
        {
          "internalType": "string",
          "name": "name",
          "type": "string"
        },
        {
          "internalType": "string",
          "name": "email",
          "type": "string"
        }
      ],
      "stateMutability": "view",
      "type": "function",
      "constant": true
    }
  ],
  "bytecode": "0x608060405234801561001057600080fd5b50610d01806100206000396000f3fe608060405234801561001057600080fd5b50600436106100415760003560e01c8063079eaf3414610046578063a87430ba14610062578063ffc9896b14610093575b600080fd5b610060600480360381019061005b91906106e6565b6100c4565b005b61007c600480360381019061007791906107bc565b6102b2565b60405161008a929190610868565b60405180910390f35b6100ad60048036038101906100a891906107bc565b6103e6565b6040516100bb929190610868565b60405180910390f35b6000825111610108576040517f08c379a00000000000000000000000000000000000000000000000000000000081526004016100ff906108eb565b60405180910390fd5b600081511161014c576040517f08c379a000000000000000000000000000000000000000000000000000000000815260040161014390610957565b60405180910390fd5b60008060003373ffffffffffffffffffffffffffffffffffffffff1673ffffffffffffffffffffffffffffffffffffffff168152602001908152602001600020600001805461019a906109a6565b9050146101dc576040517f08c379a00000000000000000000000000000000000000000000000000000000081526004016101d390610a23565b60405180910390fd5b6040518060400160405280838152602001828152506000803373ffffffffffffffffffffffffffffffffffffffff1673ffffffffffffffffffffffffffffffffffffffff16815260200190815260200160002060008201518160000190816102449190610bf9565b50602082015181600101908161025a9190610bf9565b509050503373ffffffffffffffffffffffffffffffffffffffff167f8eab1db142a914aff8b515eedb9177bd7effaef6d714c41e30bdf1520677860783836040516102a6929190610868565b60405180910390a25050565b60006020528060005260406000206000915090508060000180546102d5906109a6565b80601f0160208091040260200160405190810160405280929190818152602001828054610301906109a6565b801561034e5780601f106103235761010080835404028352916020019161034e565b820191906000526020600020905b81548152906001019060200180831161033157829003601f168201915b505050505090806001018054610363906109a6565b80601f016020809104026020016040519081016040528092919081815260200182805461038f906109a6565b80156103dc5780601f106103b1576101008083540402835291602001916103dc565b820191906000526020600020905b8154815290600101906020018083116103bf57829003601f168201915b5050505050905082565b6060806000808473ffffffffffffffffffffffffffffffffffffffff1673ffffffffffffffffffffffffffffffffffffffff1681526020019081526020016000206000016000808573ffffffffffffffffffffffffffffffffffffffff1673ffffffffffffffffffffffffffffffffffffffff168152602001908152602001600020600101818054610477906109a6565b80601f01602080910402602001604051908101604052809291908181526020018280546104a3906109a6565b80156104f05780601f106104c5576101008083540402835291602001916104f0565b820191906000526020600020905b8154815290600101906020018083116104d357829003601f168201915b50505050509150808054610503906109a6565b80601f016020809104026020016040519081016040528092919081815260200182805461052f906109a6565b801561057c5780601f106105515761010080835404028352916020019161057c565b820191906000526020600020905b81548152906001019060200180831161055f57829003601f168201915b5050505050905091509150915091565b6000604051905090565b600080fd5b600080fd5b600080fd5b600080fd5b6000601f19601f8301169050919050565b7f4e487b7100000000000000000000000000000000000000000000000000000000600052604160045260246000fd5b6105f3826105aa565b810181811067ffffffffffffffff82111715610612576106116105bb565b5b80604052505050565b600061062561058c565b905061063182826105ea565b919050565b600067ffffffffffffffff821115610651576106506105bb565b5b61065a826105aa565b9050602081019050919050565b82818337600083830152505050565b600061068961068484610636565b61061b565b9050828152602081018484840111156106a5576106a46105a5565b5b6106b0848285610667565b509392505050565b600082601f8301126106cd576106cc6105a0565b5b81356106dd848260208601610676565b91505092915050565b600080604083850312156106fd576106fc610596565b5b600083013567ffffffffffffffff81111561071b5761071a61059b565b5b610727858286016106b8565b925050602083013567ffffffffffffffff8111156107485761074761059b565b5b610754858286016106b8565b9150509250929050565b600073ffffffffffffffffffffffffffffffffffffffff82169050919050565b60006107898261075e565b9050919050565b6107998161077e565b81146107a457600080fd5b50565b6000813590506107b681610790565b92915050565b6000602082840312156107d2576107d1610596565b5b60006107e0848285016107a7565b91505092915050565b600081519050919050565b600082825260208201905092915050565b60005b83811015610823578082015181840152602081019050610808565b60008484015250505050565b600061083a826107e9565b61084481856107f4565b9350610854818560208601610805565b61085d816105aa565b840191505092915050565b60006040820190508181036000830152610882818561082f565b90508181036020830152610896818461082f565b90509392505050565b7f4e616d652063616e6e6f7420626520656d707479000000000000000000000000600082015250565b60006108d56014836107f4565b91506108e08261089f565b602082019050919050565b60006020820190508181036000830152610904816108c8565b9050919050565b7f456d61696c2063616e6e6f7420626520656d7074790000000000000000000000600082015250565b60006109416015836107f4565b915061094c8261090b565b602082019050919050565b6000602082019050818103600083015261097081610934565b9050919050565b7f4e487b7100000000000000000000000000000000000000000000000000000000600052602260045260246000fd5b600060028204905060018216806109be57607f821691505b6020821081036109d1576109d0610977565b5b50919050565b7f5573657220616c72656164792065786973747300000000000000000000000000600082015250565b6000610a0d6013836107f4565b9150610a18826109d7565b602082019050919050565b60006020820190508181036000830152610a3c81610a00565b9050919050565b60008190508160005260206000209050919050565b60006020601f8301049050919050565b600082821b905092915050565b600060088302610aa57fffffffffffffffffffffffffffffffffffffffffffffffffffffffffffffffff82610a68565b610aaf8683610a68565b95508019841693508086168417925050509392505050565b6000819050919050565b6000819050919050565b6000610af6610af1610aec84610ac7565b610ad1565b610ac7565b9050919050565b6000819050919050565b610b1083610adb565b610b24610b1c82610afd565b848454610a75565b825550505050565b600090565b610b39610b2c565b610b44818484610b07565b505050565b5b81811015610b6857610b5d600082610b31565b600181019050610b4a565b5050565b601f821115610bad57610b7e81610a43565b610b8784610a58565b81016020851015610b96578190505b610baa610ba285610a58565b830182610b49565b50505b505050565b600082821c905092915050565b6000610bd060001984600802610bb2565b1980831691505092915050565b6000610be98383610bbf565b9150826002028217905092915050565b610c02826107e9565b67ffffffffffffffff811115610c1b57610c1a6105bb565b5b610c2582546109a6565b610c30828285610b6c565b600060209050601f831160018114610c635760008415610c51578287015190505b610c5b8582610bdd565b865550610cc3565b601f198416610c7186610a43565b60005b82811015610c9957848901518255600182019150602085019450602081019050610c74565b86831015610cb65784890151610cb2601f891682610bbf565b8355505b6001600288020188555050505b50505050505056fea264697066735822122090eef338bb88f463382e3af1a2e14f1671d66726d1c548287572030c4a62f96464736f6c63430008110033",
  "immutableReferences": {},
  "source": "// SPDX-License-Identifier: MIT\npragma solidity ^0.8.17;\n\ncontract UserDataStorage {\n    struct UserData {\n        string name;\n        string email;\n    }\n\n    mapping(address => UserData) public users;\n\n    event UserAdded(address indexed userAddress, string name, string email);\n\n    function addUser(string memory _name, string memory _email) public {\n        require(bytes(_name).length > 0, \"Name cannot be empty\");\n        require(bytes(_email).length > 0, \"Email cannot be empty\");\n        require(bytes(users[msg.sender].name).length == 0, \"User already exists\");\n\n        users[msg.sender] = UserData({\n            name: _name,\n            email: _email\n        });\n\n        emit UserAdded(msg.sender, _name, _email);\n    }\n\n    function getUserData(address _userAddress) public view returns (string memory name, string memory email) {\n        return (users[_userAddress].name, users[_userAddress].email);\n    }\n}",
  "sourcePath": "/Users/aiden/truffle/web3_voting/contracts/UserDataStorage.sol",
  "compiler": {
    "name": "solc",
    "version": "0.8.17+commit.8df45f5f.Emscripten.clang"
  },
  "schemaVersion": "3.4.16",
  "updatedAt": "2024-01-08T02:40:41.407Z",
  "networkType": "ethereum",
  "devdoc": {
    "kind": "dev",
    "methods": {},
    "version": 1
  },
  "userdoc": {
    "kind": "user",
    "methods": {},
    "version": 1
  }
}